{
  "contractName": "PaymentProcessor",
  "abi": [
    {
      "inputs": [
        {
          "internalType": "address",
          "name": "_merchant",
          "type": "address"
        },
        {
          "internalType": "address",
          "name": "_paiAddress",
          "type": "address"
        }
      ],
      "stateMutability": "nonpayable",
      "type": "constructor"
    },
    {
      "inputs": [],
      "name": "merchant",
      "outputs": [
        {
          "internalType": "address",
          "name": "",
          "type": "address"
        }
      ],
      "stateMutability": "view",
      "type": "function",
      "constant": true
    },
    {
      "inputs": [],
      "name": "pai",
      "outputs": [
        {
          "internalType": "contract IPai",
          "name": "",
          "type": "address"
        }
      ],
      "stateMutability": "view",
      "type": "function",
      "constant": true
    },
    {
      "inputs": [
        {
          "internalType": "address",
          "name": "_merchant",
          "type": "address"
        }
      ],
      "name": "setNewMerchant",
      "outputs": [
        {
          "internalType": "bool",
          "name": "",
          "type": "bool"
        }
      ],
      "stateMutability": "nonpayable",
      "type": "function"
    },
    {
      "inputs": [
        {
          "internalType": "uint256",
          "name": "_amount",
          "type": "uint256"
        }
      ],
      "name": "makePayment",
      "outputs": [
        {
          "internalType": "bool",
          "name": "",
          "type": "bool"
        }
      ],
      "stateMutability": "nonpayable",
      "type": "function"
    }
  ],
  "bytecode": "0x608060405234801561001057600080fd5b506040516106aa3803806106aa8339818101604052810190610032919061011d565b806000806101000a81548173ffffffffffffffffffffffffffffffffffffffff021916908373ffffffffffffffffffffffffffffffffffffffff16021790555081600160006101000a81548173ffffffffffffffffffffffffffffffffffffffff021916908373ffffffffffffffffffffffffffffffffffffffff160217905550505061015d565b600080fd5b600073ffffffffffffffffffffffffffffffffffffffff82169050919050565b60006100ea826100bf565b9050919050565b6100fa816100df565b811461010557600080fd5b50565b600081519050610117816100f1565b92915050565b60008060408385031215610134576101336100ba565b5b600061014285828601610108565b925050602061015385828601610108565b9150509250929050565b61053e8061016c6000396000f3fe608060405234801561001057600080fd5b506004361061004c5760003560e01c806329f5d95b146100515780635114cb5214610081578063a5ff7651146100b1578063dd432107146100cf575b600080fd5b61006b6004803603810190610066919061030d565b6100ed565b6040516100789190610355565b60405180910390f35b61009b600480360381019061009691906103a6565b610193565b6040516100a89190610355565b60405180910390f35b6100b9610260565b6040516100c691906103e2565b60405180910390f35b6100d7610286565b6040516100e4919061045c565b60405180910390f35b6000600160009054906101000a900473ffffffffffffffffffffffffffffffffffffffff1673ffffffffffffffffffffffffffffffffffffffff163373ffffffffffffffffffffffffffffffffffffffff161461014957600080fd5b81600160006101000a81548173ffffffffffffffffffffffffffffffffffffffff021916908373ffffffffffffffffffffffffffffffffffffffff16021790555060019050919050565b60008060009054906101000a900473ffffffffffffffffffffffffffffffffffffffff1673ffffffffffffffffffffffffffffffffffffffff1663a9059cbb600160009054906101000a900473ffffffffffffffffffffffffffffffffffffffff16846040518363ffffffff1660e01b8152600401610213929190610486565b6020604051808303816000875af1158015610232573d6000803e3d6000fd5b505050506040513d601f19601f8201168201806040525081019061025691906104db565b5060019050919050565b600160009054906101000a900473ffffffffffffffffffffffffffffffffffffffff1681565b60008054906101000a900473ffffffffffffffffffffffffffffffffffffffff1681565b600080fd5b600073ffffffffffffffffffffffffffffffffffffffff82169050919050565b60006102da826102af565b9050919050565b6102ea816102cf565b81146102f557600080fd5b50565b600081359050610307816102e1565b92915050565b600060208284031215610323576103226102aa565b5b6000610331848285016102f8565b91505092915050565b60008115159050919050565b61034f8161033a565b82525050565b600060208201905061036a6000830184610346565b92915050565b6000819050919050565b61038381610370565b811461038e57600080fd5b50565b6000813590506103a08161037a565b92915050565b6000602082840312156103bc576103bb6102aa565b5b60006103ca84828501610391565b91505092915050565b6103dc816102cf565b82525050565b60006020820190506103f760008301846103d3565b92915050565b6000819050919050565b600061042261041d610418846102af565b6103fd565b6102af565b9050919050565b600061043482610407565b9050919050565b600061044682610429565b9050919050565b6104568161043b565b82525050565b6000602082019050610471600083018461044d565b92915050565b61048081610370565b82525050565b600060408201905061049b60008301856103d3565b6104a86020830184610477565b9392505050565b6104b88161033a565b81146104c357600080fd5b50565b6000815190506104d5816104af565b92915050565b6000602082840312156104f1576104f06102aa565b5b60006104ff848285016104c6565b9150509291505056fea2646970667358221220e926eadfe8739060201069889a736521b7ccb87fe07ebfa1a388a1ed269d67c464736f6c634300080f0033",
  "immutableReferences": {},
  "source": "//SPDX-License-Identifier: UNLICENCED\r\npragma solidity ^0.8.0;\r\n\r\nimport \"./IPai.sol\";\r\n\r\ncontract PaymentProcessor {\r\n\r\n    IPai public pai;\r\n    address public merchant;\r\n\r\n    constructor (address _merchant, address _paiAddress) public {\r\n        pai = IPai(_paiAddress);\r\n        merchant = _merchant;\r\n    }\r\n\r\n    function setNewMerchant(address _merchant) public returns(bool){\r\n        require(msg.sender == merchant);\r\n        merchant = _merchant;\r\n        return true;\r\n    }\r\n\r\n    function makePayment(uint _amount) public returns(bool){\r\n        pai.transfer(merchant, _amount);\r\n        return true;\r\n    }\r\n\r\n}",
  "sourcePath": "C:\\Users\\boss\\Documents\\tokenpay\\smart-contract\\contracts\\PaymentProcessor.sol",
  "compiler": {
    "name": "solc",
    "version": "0.8.15+commit.e14f2714.Emscripten.clang"
  },
  "schemaVersion": "3.4.8",
  "updatedAt": "2022-08-03T02:20:30.648Z",
  "networkType": "ethereum",
  "devdoc": {
    "kind": "dev",
    "methods": {},
    "version": 1
  },
  "userdoc": {
    "kind": "user",
    "methods": {},
    "version": 1
  }
}