{
  "contractName": "Pai",
  "abi": [
    {
      "inputs": [],
      "stateMutability": "nonpayable",
      "type": "constructor"
    },
    {
      "anonymous": false,
      "inputs": [
        {
          "indexed": true,
          "internalType": "address",
          "name": "owner",
          "type": "address"
        },
        {
          "indexed": true,
          "internalType": "address",
          "name": "spender",
          "type": "address"
        },
        {
          "indexed": false,
          "internalType": "uint256",
          "name": "amount",
          "type": "uint256"
        }
      ],
      "name": "Approval",
      "type": "event"
    },
    {
      "anonymous": false,
      "inputs": [
        {
          "indexed": false,
          "internalType": "address",
          "name": "from",
          "type": "address"
        },
        {
          "indexed": false,
          "internalType": "address",
          "name": "to",
          "type": "address"
        },
        {
          "indexed": false,
          "internalType": "uint256",
          "name": "amount",
          "type": "uint256"
        }
      ],
      "name": "Transfer",
      "type": "event"
    },
    {
      "anonymous": false,
      "inputs": [
        {
          "indexed": true,
          "internalType": "address",
          "name": "from",
          "type": "address"
        },
        {
          "indexed": true,
          "internalType": "address",
          "name": "to",
          "type": "address"
        },
        {
          "indexed": false,
          "internalType": "uint256",
          "name": "amount",
          "type": "uint256"
        }
      ],
      "name": "TransferFrom",
      "type": "event"
    },
    {
      "inputs": [
        {
          "internalType": "address",
          "name": "",
          "type": "address"
        },
        {
          "internalType": "address",
          "name": "",
          "type": "address"
        }
      ],
      "name": "allowance",
      "outputs": [
        {
          "internalType": "uint256",
          "name": "",
          "type": "uint256"
        }
      ],
      "stateMutability": "view",
      "type": "function",
      "constant": true
    },
    {
      "inputs": [
        {
          "internalType": "address",
          "name": "",
          "type": "address"
        }
      ],
      "name": "balances",
      "outputs": [
        {
          "internalType": "uint256",
          "name": "",
          "type": "uint256"
        }
      ],
      "stateMutability": "view",
      "type": "function",
      "constant": true
    },
    {
      "inputs": [],
      "name": "decimals",
      "outputs": [
        {
          "internalType": "uint256",
          "name": "",
          "type": "uint256"
        }
      ],
      "stateMutability": "view",
      "type": "function",
      "constant": true
    },
    {
      "inputs": [],
      "name": "name",
      "outputs": [
        {
          "internalType": "string",
          "name": "",
          "type": "string"
        }
      ],
      "stateMutability": "view",
      "type": "function",
      "constant": true
    },
    {
      "inputs": [],
      "name": "owner",
      "outputs": [
        {
          "internalType": "address",
          "name": "",
          "type": "address"
        }
      ],
      "stateMutability": "view",
      "type": "function",
      "constant": true
    },
    {
      "inputs": [],
      "name": "symbol",
      "outputs": [
        {
          "internalType": "string",
          "name": "",
          "type": "string"
        }
      ],
      "stateMutability": "view",
      "type": "function",
      "constant": true
    },
    {
      "inputs": [],
      "name": "totalSuply",
      "outputs": [
        {
          "internalType": "uint256",
          "name": "",
          "type": "uint256"
        }
      ],
      "stateMutability": "view",
      "type": "function",
      "constant": true
    },
    {
      "inputs": [
        {
          "internalType": "address",
          "name": "_owner",
          "type": "address"
        }
      ],
      "name": "balanceOf",
      "outputs": [
        {
          "internalType": "uint256",
          "name": "",
          "type": "uint256"
        }
      ],
      "stateMutability": "view",
      "type": "function",
      "constant": true
    },
    {
      "inputs": [
        {
          "internalType": "address",
          "name": "to",
          "type": "address"
        },
        {
          "internalType": "uint256",
          "name": "amount",
          "type": "uint256"
        }
      ],
      "name": "transfer",
      "outputs": [
        {
          "internalType": "bool",
          "name": "",
          "type": "bool"
        }
      ],
      "stateMutability": "nonpayable",
      "type": "function"
    },
    {
      "inputs": [
        {
          "internalType": "address",
          "name": "from",
          "type": "address"
        },
        {
          "internalType": "address",
          "name": "to",
          "type": "address"
        },
        {
          "internalType": "uint256",
          "name": "amount",
          "type": "uint256"
        }
      ],
      "name": "transferFrom",
      "outputs": [
        {
          "internalType": "bool",
          "name": "",
          "type": "bool"
        }
      ],
      "stateMutability": "nonpayable",
      "type": "function"
    },
    {
      "inputs": [
        {
          "internalType": "address",
          "name": "spender",
          "type": "address"
        },
        {
          "internalType": "uint256",
          "name": "amount",
          "type": "uint256"
        }
      ],
      "name": "approve",
      "outputs": [
        {
          "internalType": "bool",
          "name": "",
          "type": "bool"
        }
      ],
      "stateMutability": "nonpayable",
      "type": "function"
    }
  ],
  "bytecode": "0x608060405269d3c21bcecceda10000006000556040518060400160405280600381526020017f506169000000000000000000000000000000000000000000000000000000000081525060019081620000589190620003ba565b506040518060400160405280600381526020017f5041490000000000000000000000000000000000000000000000000000000000815250600290816200009f9190620003ba565b506012600355348015620000b257600080fd5b5033600460006101000a81548173ffffffffffffffffffffffffffffffffffffffff021916908373ffffffffffffffffffffffffffffffffffffffff160217905550600054600560003373ffffffffffffffffffffffffffffffffffffffff1673ffffffffffffffffffffffffffffffffffffffff16815260200190815260200160002081905550620004a1565b600081519050919050565b7f4e487b7100000000000000000000000000000000000000000000000000000000600052604160045260246000fd5b7f4e487b7100000000000000000000000000000000000000000000000000000000600052602260045260246000fd5b60006002820490506001821680620001c257607f821691505b602082108103620001d857620001d76200017a565b5b50919050565b60008190508160005260206000209050919050565b60006020601f8301049050919050565b600082821b905092915050565b600060088302620002427fffffffffffffffffffffffffffffffffffffffffffffffffffffffffffffffff8262000203565b6200024e868362000203565b95508019841693508086168417925050509392505050565b6000819050919050565b6000819050919050565b60006200029b620002956200028f8462000266565b62000270565b62000266565b9050919050565b6000819050919050565b620002b7836200027a565b620002cf620002c682620002a2565b84845462000210565b825550505050565b600090565b620002e6620002d7565b620002f3818484620002ac565b505050565b5b818110156200031b576200030f600082620002dc565b600181019050620002f9565b5050565b601f8211156200036a576200033481620001de565b6200033f84620001f3565b810160208510156200034f578190505b620003676200035e85620001f3565b830182620002f8565b50505b505050565b600082821c905092915050565b60006200038f600019846008026200036f565b1980831691505092915050565b6000620003aa83836200037c565b9150826002028217905092915050565b620003c58262000140565b67ffffffffffffffff811115620003e157620003e06200014b565b5b620003ed8254620001a9565b620003fa8282856200031f565b600060209050601f8311600181146200043257600084156200041d578287015190505b6200042985826200039c565b86555062000499565b601f1984166200044286620001de565b60005b828110156200046c5784890151825560018201915060208501945060208101905062000445565b868310156200048c578489015162000488601f8916826200037c565b8355505b6001600288020188555050505b505050505050565b610e2980620004b16000396000f3fe608060405234801561001057600080fd5b50600436106100a95760003560e01c806370a082311161007157806370a082311461017a5780638da5cb5b146101aa57806395d89b41146101c8578063a2a96799146101e6578063a9059cbb14610204578063dd62ed3e14610234576100a9565b806306fdde03146100ae578063095ea7b3146100cc57806323b872dd146100fc57806327e235e31461012c578063313ce5671461015c575b600080fd5b6100b6610264565b6040516100c39190610986565b60405180910390f35b6100e660048036038101906100e19190610a41565b6102f2565b6040516100f39190610a9c565b60405180910390f35b61011660048036038101906101119190610ab7565b6103e4565b6040516101239190610a9c565b60405180910390f35b61014660048036038101906101419190610b0a565b61069f565b6040516101539190610b46565b60405180910390f35b6101646106b7565b6040516101719190610b46565b60405180910390f35b610194600480360381019061018f9190610b0a565b6106bd565b6040516101a19190610b46565b60405180910390f35b6101b2610706565b6040516101bf9190610b70565b60405180910390f35b6101d061072c565b6040516101dd9190610986565b60405180910390f35b6101ee6107ba565b6040516101fb9190610b46565b60405180910390f35b61021e60048036038101906102199190610a41565b6107c0565b60405161022b9190610a9c565b60405180910390f35b61024e60048036038101906102499190610b8b565b6108c8565b60405161025b9190610b46565b60405180910390f35b6001805461027190610bfa565b80601f016020809104026020016040519081016040528092919081815260200182805461029d90610bfa565b80156102ea5780601f106102bf576101008083540402835291602001916102ea565b820191906000526020600020905b8154815290600101906020018083116102cd57829003601f168201915b505050505081565b600081600660003373ffffffffffffffffffffffffffffffffffffffff1673ffffffffffffffffffffffffffffffffffffffff16815260200190815260200160002060008573ffffffffffffffffffffffffffffffffffffffff1673ffffffffffffffffffffffffffffffffffffffff168152602001908152602001600020819055508273ffffffffffffffffffffffffffffffffffffffff163373ffffffffffffffffffffffffffffffffffffffff167f8c5be1e5ebec7d5bd14f71427d1e84f3dd0314c0f7b2291e5b200ac8c7c3b925846040516103d29190610b46565b60405180910390a36001905092915050565b6000816103f0856106bd565b1015610431576040517f08c379a000000000000000000000000000000000000000000000000000000000815260040161042890610c77565b60405180910390fd5b81600660008673ffffffffffffffffffffffffffffffffffffffff1673ffffffffffffffffffffffffffffffffffffffff16815260200190815260200160002060003373ffffffffffffffffffffffffffffffffffffffff1673ffffffffffffffffffffffffffffffffffffffff1681526020019081526020016000205410156104f0576040517f08c379a00000000000000000000000000000000000000000000000000000000081526004016104e790610ce3565b60405180910390fd5b81600560008673ffffffffffffffffffffffffffffffffffffffff1673ffffffffffffffffffffffffffffffffffffffff168152602001908152602001600020600082825461053f9190610d32565b9250508190555081600660008673ffffffffffffffffffffffffffffffffffffffff1673ffffffffffffffffffffffffffffffffffffffff16815260200190815260200160002060003373ffffffffffffffffffffffffffffffffffffffff1673ffffffffffffffffffffffffffffffffffffffff16815260200190815260200160002060008282546105d29190610d32565b9250508190555081600560008573ffffffffffffffffffffffffffffffffffffffff1673ffffffffffffffffffffffffffffffffffffffff16815260200190815260200160002060008282546106289190610d66565b925050819055503373ffffffffffffffffffffffffffffffffffffffff168473ffffffffffffffffffffffffffffffffffffffff167fc0d84ce5c7ff9ca21adb0f8436ff3f4951b4bb78c4e2fae2b6837958b3946ffd8460405161068c9190610b46565b60405180910390a3600190509392505050565b60056020528060005260406000206000915090505481565b60035481565b6000600560008373ffffffffffffffffffffffffffffffffffffffff1673ffffffffffffffffffffffffffffffffffffffff168152602001908152602001600020549050919050565b600460009054906101000a900473ffffffffffffffffffffffffffffffffffffffff1681565b6002805461073990610bfa565b80601f016020809104026020016040519081016040528092919081815260200182805461076590610bfa565b80156107b25780601f10610787576101008083540402835291602001916107b2565b820191906000526020600020905b81548152906001019060200180831161079557829003601f168201915b505050505081565b60005481565b6000816107cc336106bd565b10156107d757600080fd5b81600560003373ffffffffffffffffffffffffffffffffffffffff1673ffffffffffffffffffffffffffffffffffffffff16815260200190815260200160002060008282546108269190610d32565b9250508190555081600560008573ffffffffffffffffffffffffffffffffffffffff1673ffffffffffffffffffffffffffffffffffffffff168152602001908152602001600020600082825461087c9190610d66565b925050819055507fddf252ad1be2c89b69c2b068fc378daa952ba7f163c4a11628f55a4df523b3ef3384846040516108b693929190610dbc565b60405180910390a16001905092915050565b6006602052816000526040600020602052806000526040600020600091509150505481565b600081519050919050565b600082825260208201905092915050565b60005b8381101561092757808201518184015260208101905061090c565b83811115610936576000848401525b50505050565b6000601f19601f8301169050919050565b6000610958826108ed565b61096281856108f8565b9350610972818560208601610909565b61097b8161093c565b840191505092915050565b600060208201905081810360008301526109a0818461094d565b905092915050565b600080fd5b600073ffffffffffffffffffffffffffffffffffffffff82169050919050565b60006109d8826109ad565b9050919050565b6109e8816109cd565b81146109f357600080fd5b50565b600081359050610a05816109df565b92915050565b6000819050919050565b610a1e81610a0b565b8114610a2957600080fd5b50565b600081359050610a3b81610a15565b92915050565b60008060408385031215610a5857610a576109a8565b5b6000610a66858286016109f6565b9250506020610a7785828601610a2c565b9150509250929050565b60008115159050919050565b610a9681610a81565b82525050565b6000602082019050610ab16000830184610a8d565b92915050565b600080600060608486031215610ad057610acf6109a8565b5b6000610ade868287016109f6565b9350506020610aef868287016109f6565b9250506040610b0086828701610a2c565b9150509250925092565b600060208284031215610b2057610b1f6109a8565b5b6000610b2e848285016109f6565b91505092915050565b610b4081610a0b565b82525050565b6000602082019050610b5b6000830184610b37565b92915050565b610b6a816109cd565b82525050565b6000602082019050610b856000830184610b61565b92915050565b60008060408385031215610ba257610ba16109a8565b5b6000610bb0858286016109f6565b9250506020610bc1858286016109f6565b9150509250929050565b7f4e487b7100000000000000000000000000000000000000000000000000000000600052602260045260246000fd5b60006002820490506001821680610c1257607f821691505b602082108103610c2557610c24610bcb565b5b50919050565b7f62616c616e636520746f6f206c6f770000000000000000000000000000000000600082015250565b6000610c61600f836108f8565b9150610c6c82610c2b565b602082019050919050565b60006020820190508181036000830152610c9081610c54565b9050919050565b7f416c6c6f77616e636520746f6f206c6f77000000000000000000000000000000600082015250565b6000610ccd6011836108f8565b9150610cd882610c97565b602082019050919050565b60006020820190508181036000830152610cfc81610cc0565b9050919050565b7f4e487b7100000000000000000000000000000000000000000000000000000000600052601160045260246000fd5b6000610d3d82610a0b565b9150610d4883610a0b565b925082821015610d5b57610d5a610d03565b5b828203905092915050565b6000610d7182610a0b565b9150610d7c83610a0b565b9250827fffffffffffffffffffffffffffffffffffffffffffffffffffffffffffffffff03821115610db157610db0610d03565b5b828201905092915050565b6000606082019050610dd16000830186610b61565b610dde6020830185610b61565b610deb6040830184610b37565b94935050505056fea2646970667358221220098f3e61da4d3181e970aaf02b5fa39101512b2dcbe57117dbf508ef64aae51964736f6c634300080f0033",
  "immutableReferences": {},
  "source": "//SPDX-License-Identifier: UNLICENCED\r\npragma solidity ^0.8.0;\r\n\r\ncontract Pai {\r\nuint public totalSuply = 1000000000000000000000000;\r\nstring public name = \"Pai\";\r\nstring public symbol = \"PAI\";\r\nuint public decimals = 18;\r\naddress public owner;\r\n\r\nmapping(address => uint)  public balances;\r\nmapping(address => mapping(address => uint)) public allowance;\r\nevent Transfer(address from, address to, uint amount);\r\nevent Approval(address indexed owner, address indexed spender, uint amount);\r\nevent TransferFrom(address indexed from, address indexed to, uint amount);\r\n\r\nconstructor() public {\r\n    owner = msg.sender;\r\n    balances[msg.sender] = totalSuply;\r\n}\r\n\r\nfunction balanceOf(address _owner) public view returns(uint){\r\n    return balances[_owner];\r\n    \r\n}\r\n\r\nfunction transfer(address to, uint amount) public returns(bool){\r\n    require(balanceOf(msg.sender) >= amount);\r\n    balances[msg.sender] -= amount;\r\n    balances[to] += amount;\r\n    emit Transfer(msg.sender, to, amount);\r\n    return true;\r\n}\r\n\r\nfunction transferFrom(address from, address to, uint amount) public returns(bool){\r\n    require(balanceOf(from) >= amount, \"balance too low\");\r\n    require(allowance[from][msg.sender] >= amount, \"Allowance too low\");\r\n    balances[from] -= amount;\r\n    allowance[from][msg.sender] -= amount;\r\n    balances[to] += amount;\r\n    emit TransferFrom(from, msg.sender, amount);\r\n    return true;\r\n\r\n}\r\n\r\nfunction approve(address spender, uint amount) public returns(bool){\r\n    allowance[msg.sender][spender] = amount;\r\n    emit Approval(msg.sender, spender, amount);\r\n    return true;\r\n}\r\n}",
  "sourcePath": "C:\\Users\\boss\\Documents\\tokenpay\\smart-contract\\contracts\\Pai.sol",
  "compiler": {
    "name": "solc",
    "version": "0.8.15+commit.e14f2714.Emscripten.clang"
  },
  "schemaVersion": "3.4.8",
  "updatedAt": "2022-08-07T11:26:39.520Z",
  "networkType": "ethereum",
  "devdoc": {
    "kind": "dev",
    "methods": {},
    "version": 1
  },
  "userdoc": {
    "kind": "user",
    "methods": {},
    "version": 1
  }
}