{
  "contractName": "PaymentProcessor",
  "abi": [
    {
      "inputs": [
        {
          "internalType": "address",
          "name": "_merchant",
          "type": "address"
        },
        {
          "internalType": "address",
          "name": "_paiAddress",
          "type": "address"
        }
      ],
      "stateMutability": "nonpayable",
      "type": "constructor"
    },
    {
      "inputs": [],
      "name": "merchant",
      "outputs": [
        {
          "internalType": "address",
          "name": "",
          "type": "address"
        }
      ],
      "stateMutability": "view",
      "type": "function",
      "constant": true
    },
    {
      "inputs": [],
      "name": "pai",
      "outputs": [
        {
          "internalType": "contract IPai",
          "name": "",
          "type": "address"
        }
      ],
      "stateMutability": "view",
      "type": "function",
      "constant": true
    },
    {
      "inputs": [
        {
          "internalType": "address",
          "name": "_merchant",
          "type": "address"
        }
      ],
      "name": "setNewMerchant",
      "outputs": [
        {
          "internalType": "bool",
          "name": "",
          "type": "bool"
        }
      ],
      "stateMutability": "nonpayable",
      "type": "function"
    },
    {
      "inputs": [
        {
          "internalType": "uint256",
          "name": "_amount",
          "type": "uint256"
        }
      ],
      "name": "makePayment",
      "outputs": [
        {
          "internalType": "bool",
          "name": "",
          "type": "bool"
        }
      ],
      "stateMutability": "nonpayable",
      "type": "function"
    }
  ],
  "bytecode": "0x608060405234801561001057600080fd5b506040516106ba3803806106ba8339818101604052810190610032919061011d565b806000806101000a81548173ffffffffffffffffffffffffffffffffffffffff021916908373ffffffffffffffffffffffffffffffffffffffff16021790555081600160006101000a81548173ffffffffffffffffffffffffffffffffffffffff021916908373ffffffffffffffffffffffffffffffffffffffff160217905550505061015d565b600080fd5b600073ffffffffffffffffffffffffffffffffffffffff82169050919050565b60006100ea826100bf565b9050919050565b6100fa816100df565b811461010557600080fd5b50565b600081519050610117816100f1565b92915050565b60008060408385031215610134576101336100ba565b5b600061014285828601610108565b925050602061015385828601610108565b9150509250929050565b61054e8061016c6000396000f3fe608060405234801561001057600080fd5b506004361061004c5760003560e01c806329f5d95b146100515780635114cb5214610081578063a5ff7651146100b1578063dd432107146100cf575b600080fd5b61006b6004803603810190610066919061030f565b6100ed565b6040516100789190610357565b60405180910390f35b61009b600480360381019061009691906103a8565b610193565b6040516100a89190610357565b60405180910390f35b6100b9610262565b6040516100c691906103e4565b60405180910390f35b6100d7610288565b6040516100e4919061045e565b60405180910390f35b6000600160009054906101000a900473ffffffffffffffffffffffffffffffffffffffff1673ffffffffffffffffffffffffffffffffffffffff163373ffffffffffffffffffffffffffffffffffffffff161461014957600080fd5b81600160006101000a81548173ffffffffffffffffffffffffffffffffffffffff021916908373ffffffffffffffffffffffffffffffffffffffff16021790555060019050919050565b60008060009054906101000a900473ffffffffffffffffffffffffffffffffffffffff1673ffffffffffffffffffffffffffffffffffffffff166323b872dd33600160009054906101000a900473ffffffffffffffffffffffffffffffffffffffff16856040518463ffffffff1660e01b815260040161021593929190610488565b6020604051808303816000875af1158015610234573d6000803e3d6000fd5b505050506040513d601f19601f8201168201806040525081019061025891906104eb565b5060019050919050565b600160009054906101000a900473ffffffffffffffffffffffffffffffffffffffff1681565b60008054906101000a900473ffffffffffffffffffffffffffffffffffffffff1681565b600080fd5b600073ffffffffffffffffffffffffffffffffffffffff82169050919050565b60006102dc826102b1565b9050919050565b6102ec816102d1565b81146102f757600080fd5b50565b600081359050610309816102e3565b92915050565b600060208284031215610325576103246102ac565b5b6000610333848285016102fa565b91505092915050565b60008115159050919050565b6103518161033c565b82525050565b600060208201905061036c6000830184610348565b92915050565b6000819050919050565b61038581610372565b811461039057600080fd5b50565b6000813590506103a28161037c565b92915050565b6000602082840312156103be576103bd6102ac565b5b60006103cc84828501610393565b91505092915050565b6103de816102d1565b82525050565b60006020820190506103f960008301846103d5565b92915050565b6000819050919050565b600061042461041f61041a846102b1565b6103ff565b6102b1565b9050919050565b600061043682610409565b9050919050565b60006104488261042b565b9050919050565b6104588161043d565b82525050565b6000602082019050610473600083018461044f565b92915050565b61048281610372565b82525050565b600060608201905061049d60008301866103d5565b6104aa60208301856103d5565b6104b76040830184610479565b949350505050565b6104c88161033c565b81146104d357600080fd5b50565b6000815190506104e5816104bf565b92915050565b600060208284031215610501576105006102ac565b5b600061050f848285016104d6565b9150509291505056fea264697066735822122039855011c497c4969c2d27e689634227f101a0a7f313d42668d3f5aa2d596ac264736f6c634300080f0033",
  "immutableReferences": {},
  "source": "//SPDX-License-Identifier: UNLICENCED\r\npragma solidity ^0.8.0;\r\n\r\nimport \"./IPai.sol\";\r\n\r\ncontract PaymentProcessor {\r\n\r\n    IPai public pai;\r\n    address public merchant;\r\n\r\n    constructor (address _merchant, address _paiAddress) public {\r\n        pai = IPai(_paiAddress);\r\n        merchant = _merchant;\r\n    }\r\n\r\n    function setNewMerchant(address _merchant) public returns(bool){\r\n        require(msg.sender == merchant);\r\n        merchant = _merchant;\r\n        return true;\r\n    }\r\n\r\n    function makePayment(uint _amount) public returns(bool){\r\n        pai.transferFrom(msg.sender, merchant, _amount);\r\n        return true;\r\n    }\r\n\r\n}",
  "sourcePath": "C:\\Users\\boss\\Documents\\tokenpay\\smart-contract\\contracts\\PaymentProcessor.sol",
  "compiler": {
    "name": "solc",
    "version": "0.8.15+commit.e14f2714.Emscripten.clang"
  },
  "schemaVersion": "3.4.8",
  "updatedAt": "2022-08-07T11:26:39.544Z",
  "networkType": "ethereum",
  "devdoc": {
    "kind": "dev",
    "methods": {},
    "version": 1
  },
  "userdoc": {
    "kind": "user",
    "methods": {},
    "version": 1
  }
}